{
  "contractName": "Investment",
  "abi": [
    {
      "inputs": [],
      "stateMutability": "nonpayable",
      "type": "constructor"
    },
    {
      "anonymous": false,
      "inputs": [
        {
          "indexed": false,
          "internalType": "uint256",
          "name": "depositAmount",
          "type": "uint256"
        },
        {
          "indexed": false,
          "internalType": "uint256",
          "name": "balanceAmount",
          "type": "uint256"
        }
      ],
      "name": "BalanceChange",
      "type": "event"
    },
    {
      "inputs": [],
      "name": "getBalanceAmount",
      "outputs": [
        {
          "internalType": "uint256",
          "name": "",
          "type": "uint256"
        }
      ],
      "stateMutability": "view",
      "type": "function",
      "constant": true
    },
    {
      "inputs": [],
      "name": "getDepositAmount",
      "outputs": [
        {
          "internalType": "uint256",
          "name": "",
          "type": "uint256"
        }
      ],
      "stateMutability": "view",
      "type": "function",
      "constant": true
    },
    {
      "inputs": [
        {
          "internalType": "uint256",
          "name": "deposit",
          "type": "uint256"
        }
      ],
      "name": "addDepositAmount",
      "outputs": [],
      "stateMutability": "nonpayable",
      "type": "function"
    },
    {
      "inputs": [
        {
          "internalType": "uint256",
          "name": "widthraw",
          "type": "uint256"
        }
      ],
      "name": "withdrawAmount",
      "outputs": [],
      "stateMutability": "nonpayable",
      "type": "function"
    }
  ],
  "bytecode": "0x608060405234801561001057600080fd5b50600c600281905550600380819055506104318061002f6000396000f3fe608060405234801561001057600080fd5b506004361061004c5760003560e01c80630562b9f71461005157806358d3e10f1461006d5780637d96f6931461008b578063a59c1245146100a9575b600080fd5b61006b60048036038101906100669190610228565b6100c5565b005b610075610169565b60405161008291906102a3565b60405180910390f35b610093610172565b6040516100a091906102a3565b60405180910390f35b6100c360048036038101906100be9190610228565b61017c565b005b8060005411610109576040517f08c379a000000000000000000000000000000000000000000000000000000000815260040161010090610283565b60405180910390fd5b8060008082825461011a919061034e565b9250508190555060006001819055507ff51af9a543295074204c9bb2d36c6f10cb6177e660fb80169592be98b37a4a9560015460005460405161015e9291906102be565b60405180910390a150565b60008054905090565b6000600154905090565b806001600082825461018e91906102f8565b92505081905550806000808282546101a691906102f8565b92505081905550600254600154106101d3576003546000808282546101cb91906102f8565b925050819055505b7ff51af9a543295074204c9bb2d36c6f10cb6177e660fb80169592be98b37a4a956001546000546040516102089291906102be565b60405180910390a150565b600081359050610222816103e4565b92915050565b60006020828403121561023a57600080fd5b600061024884828501610213565b91505092915050565b600061025e6013836102e7565b9150610269826103bb565b602082019050919050565b61027d81610382565b82525050565b6000602082019050818103600083015261029c81610251565b9050919050565b60006020820190506102b86000830184610274565b92915050565b60006040820190506102d36000830185610274565b6102e06020830184610274565b9392505050565b600082825260208201905092915050565b600061030382610382565b915061030e83610382565b9250827fffffffffffffffffffffffffffffffffffffffffffffffffffffffffffffffff038211156103435761034261038c565b5b828201905092915050565b600061035982610382565b915061036483610382565b9250828210156103775761037661038c565b5b828203905092915050565b6000819050919050565b7f4e487b7100000000000000000000000000000000000000000000000000000000600052601160045260246000fd5b7f6e6f7420656e6f756768742062616c616e636500000000000000000000000000600082015250565b6103ed81610382565b81146103f857600080fd5b5056fea264697066735822122041822622df2f186132678be0a41784d44c995881a0479dca21e9a104f90253ec64736f6c63430008030033",
  "immutableReferences": {},
  "source": "// SPDX-License-Identifier: GPL-3.0\r\npragma solidity >=0.6.2 <0.9.0;\r\n\r\ncontract Investment{\r\n\r\n    uint256 balanceAmount;\r\n    uint256 depositValue;\r\n    uint256 thresholdAmount;\r\n    uint256 returnOnInvestment;\r\n    \r\n    event BalanceChange(uint depositAmount, uint balanceAmount);\r\n\r\n    constructor(){\r\n    thresholdAmount = 12;\r\n    returnOnInvestment = 3;\r\n    }\r\n    \r\n    function getBalanceAmount()  public view returns (uint256){\r\n        return balanceAmount;\r\n    }\r\n    \r\n    function getDepositAmount() public view returns (uint256){\r\n        return depositValue;\r\n    }\r\n    \r\n    function addDepositAmount(uint256 deposit) public{\r\n        depositValue += deposit;\r\n        balanceAmount += deposit;\r\n        \r\n        if(depositValue >= thresholdAmount){\r\n            balanceAmount += returnOnInvestment;\r\n        } \r\n        emit BalanceChange(depositValue,balanceAmount);\r\n    }\r\n    \r\n    function withdrawAmount(uint256 widthraw) public {\r\n        require(balanceAmount > widthraw, \"not enought balance\");\r\n        balanceAmount -= widthraw;\r\n        depositValue = 0;\r\n\r\n         emit BalanceChange(depositValue,balanceAmount);\r\n    }\r\n    \r\n}",
  "sourcePath": "C:/Users/rbsou/Documents/FLUTTER/BLOCK_REVOLUTION_APPS/basic_wallet/contracts/Investments.sol",
  "compiler": {
    "name": "solc",
    "version": "0.8.3+commit.8d00100c.Emscripten.clang"
  },
  "schemaVersion": "3.4.1",
  "updatedAt": "2021-10-25T10:00:04.516Z",
  "networkType": "ethereum",
  "devdoc": {
    "kind": "dev",
    "methods": {},
    "version": 1
  },
  "userdoc": {
    "kind": "user",
    "methods": {},
    "version": 1
  }
}