{
  "contractName": "Investment",
  "abi": [
    {
      "inputs": [],
      "stateMutability": "nonpayable",
      "type": "constructor"
    },
    {
      "anonymous": false,
      "inputs": [
        {
          "indexed": false,
          "internalType": "uint256",
          "name": "depositAmount",
          "type": "uint256"
        },
        {
          "indexed": false,
          "internalType": "uint256",
          "name": "balanceAmount",
          "type": "uint256"
        }
      ],
      "name": "BalanceChange",
      "type": "event"
    },
    {
      "inputs": [],
      "name": "getWallet",
      "outputs": [
        {
          "internalType": "uint256",
          "name": "_balanceAmount",
          "type": "uint256"
        },
        {
          "internalType": "uint256",
          "name": "_depositValue",
          "type": "uint256"
        }
      ],
      "stateMutability": "view",
      "type": "function",
      "constant": true
    },
    {
      "inputs": [
        {
          "internalType": "uint256",
          "name": "deposit",
          "type": "uint256"
        }
      ],
      "name": "addDepositAmount",
      "outputs": [],
      "stateMutability": "nonpayable",
      "type": "function"
    },
    {
      "inputs": [
        {
          "internalType": "uint256",
          "name": "widthraw",
          "type": "uint256"
        }
      ],
      "name": "withdrawAmount",
      "outputs": [],
      "stateMutability": "nonpayable",
      "type": "function"
    }
  ],
  "bytecode": "0x608060405234801561001057600080fd5b50600c600281905550600380819055506103ef8061002f6000396000f3fe608060405234801561001057600080fd5b50600436106100415760003560e01c80630562b9f7146100465780631329960414610062578063a59c124514610081575b600080fd5b610060600480360381019061005b9190610201565b61009d565b005b61006a610141565b60405161007892919061027c565b60405180910390f35b61009b60048036038101906100969190610201565b610155565b005b80600054116100e1576040517f08c379a00000000000000000000000000000000000000000000000000000000081526004016100d89061025c565b60405180910390fd5b806000808282546100f2919061030c565b9250508190555060006001819055507ff51af9a543295074204c9bb2d36c6f10cb6177e660fb80169592be98b37a4a9560015460005460405161013692919061027c565b60405180910390a150565b600080600054915081600154915091509091565b806001600082825461016791906102b6565b925050819055508060008082825461017f91906102b6565b92505081905550600254600154106101ac576003546000808282546101a491906102b6565b925050819055505b7ff51af9a543295074204c9bb2d36c6f10cb6177e660fb80169592be98b37a4a956001546000546040516101e192919061027c565b60405180910390a150565b6000813590506101fb816103a2565b92915050565b60006020828403121561021357600080fd5b6000610221848285016101ec565b91505092915050565b60006102376013836102a5565b915061024282610379565b602082019050919050565b61025681610340565b82525050565b600060208201905081810360008301526102758161022a565b9050919050565b6000604082019050610291600083018561024d565b61029e602083018461024d565b9392505050565b600082825260208201905092915050565b60006102c182610340565b91506102cc83610340565b9250827fffffffffffffffffffffffffffffffffffffffffffffffffffffffffffffffff038211156103015761030061034a565b5b828201905092915050565b600061031782610340565b915061032283610340565b9250828210156103355761033461034a565b5b828203905092915050565b6000819050919050565b7f4e487b7100000000000000000000000000000000000000000000000000000000600052601160045260246000fd5b7f6e6f7420656e6f756768742062616c616e636500000000000000000000000000600082015250565b6103ab81610340565b81146103b657600080fd5b5056fea26469706673582212207d4c3009da4523882d612e0b1ea9e24432b15e07c282d35d9033ee7f87c4cb7e64736f6c63430008030033",
  "immutableReferences": {},
  "source": "// SPDX-License-Identifier: GPL-3.0\r\npragma solidity >=0.6.2 <0.9.0;\r\n\r\ncontract Investment{\r\n\r\n    uint256 balanceAmount;\r\n    uint256 depositValue;\r\n    uint256 thresholdAmount;\r\n    uint256 returnOnInvestment;\r\n    \r\n    event BalanceChange(uint depositAmount, uint balanceAmount);\r\n\r\n    constructor(){\r\n    thresholdAmount = 12;\r\n    returnOnInvestment = 3;\r\n    }\r\n    \r\n    function getWallet()  public view returns (uint256 _balanceAmount, uint256 _depositValue){\r\n        return (_balanceAmount = balanceAmount, _depositValue = depositValue);\r\n    }\r\n    \r\n    function addDepositAmount(uint256 deposit) public{\r\n        depositValue += deposit;\r\n        balanceAmount += deposit;\r\n        \r\n        if(depositValue >= thresholdAmount){\r\n            balanceAmount += returnOnInvestment;\r\n        } \r\n        emit BalanceChange(depositValue,balanceAmount);\r\n    }\r\n    \r\n    function withdrawAmount(uint256 widthraw) public {\r\n        require(balanceAmount > widthraw, \"not enought balance\");\r\n        balanceAmount -= widthraw;\r\n        depositValue = 0;\r\n\r\n         emit BalanceChange(depositValue,balanceAmount);\r\n    }\r\n    \r\n}",
  "sourcePath": "C:/Users/rbsou/Documents/FLUTTER/BLOCK_REVOLUTION_APPS/basic_wallet/contracts/Investments.sol",
  "compiler": {
    "name": "solc",
    "version": "0.8.3+commit.8d00100c.Emscripten.clang"
  },
  "schemaVersion": "3.4.3",
  "updatedAt": "2021-12-24T15:49:17.692Z",
  "networkType": "ethereum",
  "devdoc": {
    "kind": "dev",
    "methods": {},
    "version": 1
  },
  "userdoc": {
    "kind": "user",
    "methods": {},
    "version": 1
  }
}