{
  "contractName": "Investment",
  "abi": [
    {
      "inputs": [],
      "stateMutability": "nonpayable",
      "type": "constructor"
    },
    {
      "anonymous": false,
      "inputs": [
        {
          "indexed": false,
          "internalType": "uint256",
          "name": "depositAmount",
          "type": "uint256"
        },
        {
          "indexed": false,
          "internalType": "uint256",
          "name": "balanceAmount",
          "type": "uint256"
        }
      ],
      "name": "BalanceChange",
      "type": "event"
    },
    {
      "inputs": [],
      "name": "getWallet",
      "outputs": [
        {
          "internalType": "uint256",
          "name": "_balanceAmount",
          "type": "uint256"
        },
        {
          "internalType": "uint256",
          "name": "_depositValue",
          "type": "uint256"
        }
      ],
      "stateMutability": "view",
      "type": "function",
      "constant": true
    },
    {
      "inputs": [
        {
          "internalType": "uint256",
          "name": "deposit",
          "type": "uint256"
        }
      ],
      "name": "addDepositAmount",
      "outputs": [],
      "stateMutability": "nonpayable",
      "type": "function"
    },
    {
      "inputs": [
        {
          "internalType": "uint256",
          "name": "withdraw",
          "type": "uint256"
        }
      ],
      "name": "withdrawAmount",
      "outputs": [],
      "stateMutability": "nonpayable",
      "type": "function"
    }
  ],
  "bytecode": "0x608060405234801561001057600080fd5b50600c600281905550600380819055506103de8061002f6000396000f3fe608060405234801561001057600080fd5b50600436106100415760003560e01c80630562b9f7146100465780631329960414610062578063a59c124514610081575b600080fd5b610060600480360381019061005b91906101f0565b61009d565b005b61006a610142565b60405161007892919061026b565b60405180910390f35b61009b600480360381019061009691906101f0565b610156565b005b8060005410156100e2576040517f08c379a00000000000000000000000000000000000000000000000000000000081526004016100d99061024b565b60405180910390fd5b806000808282546100f391906102fb565b9250508190555060006001819055507ff51af9a543295074204c9bb2d36c6f10cb6177e660fb80169592be98b37a4a9560015460005460405161013792919061026b565b60405180910390a150565b600080600054915081600154915091509091565b806001819055508060008082825461016e91906102a5565b925050819055506002546001541061019b5760035460008082825461019391906102a5565b925050819055505b7ff51af9a543295074204c9bb2d36c6f10cb6177e660fb80169592be98b37a4a956001546000546040516101d092919061026b565b60405180910390a150565b6000813590506101ea81610391565b92915050565b60006020828403121561020257600080fd5b6000610210848285016101db565b91505092915050565b6000610226601283610294565b915061023182610368565b602082019050919050565b6102458161032f565b82525050565b6000602082019050818103600083015261026481610219565b9050919050565b6000604082019050610280600083018561023c565b61028d602083018461023c565b9392505050565b600082825260208201905092915050565b60006102b08261032f565b91506102bb8361032f565b9250827fffffffffffffffffffffffffffffffffffffffffffffffffffffffffffffffff038211156102f0576102ef610339565b5b828201905092915050565b60006103068261032f565b91506103118361032f565b92508282101561032457610323610339565b5b828203905092915050565b6000819050919050565b7f4e487b7100000000000000000000000000000000000000000000000000000000600052601160045260246000fd5b7f6e6f7420656e6f7567682062616c616e63650000000000000000000000000000600082015250565b61039a8161032f565b81146103a557600080fd5b5056fea2646970667358221220e8e1fa080c19d0ce181cf3b5b20f8ae4d4c84468e9d58ee08e91a3c03db3316864736f6c63430008030033",
  "immutableReferences": {},
  "source": "// SPDX-License-Identifier: GPL-3.0\r\npragma solidity >=0.6.2 <0.9.0;\r\n\r\ncontract Investment {\r\n    uint256 balanceAmount;\r\n    uint256 depositValue;\r\n    uint256 thresholdAmount;\r\n    uint256 returnOnInvestment;\r\n\r\n    event BalanceChange(uint256 depositAmount, uint256 balanceAmount);\r\n\r\n    constructor() {\r\n        thresholdAmount = 12; // set the limit deposit to earn return\r\n        returnOnInvestment = 3;\r\n    }\r\n\r\n    function getWallet()\r\n        public\r\n        view\r\n        returns (\r\n            uint256 _balanceAmount,\r\n            uint256 _depositValue // getter for the wallet state\r\n        )\r\n    {\r\n        return (_balanceAmount = balanceAmount, _depositValue = depositValue);\r\n    }\r\n\r\n    function addDepositAmount(uint256 deposit) public {\r\n        depositValue = deposit; // increase deposit\r\n        balanceAmount += deposit; // decrease deposit\r\n\r\n        if (depositValue >= thresholdAmount) {\r\n            // check if will have return\r\n            balanceAmount += returnOnInvestment;\r\n        }\r\n        emit BalanceChange(depositValue, balanceAmount); // emit event\r\n    }\r\n\r\n    function withdrawAmount(uint256 withdraw) public {\r\n        require(balanceAmount >= withdraw, \"not enough balance\"); // check if there is enough\r\n        balanceAmount -= withdraw; // deduce the withdraw amount from the balance\r\n        depositValue = 0;\r\n\r\n        emit BalanceChange(depositValue, balanceAmount); // emit event\r\n    }\r\n}\r\n",
  "sourcePath": "C:\\Users\\rbsou\\Documents\\FLUTTER\\BLOCK_REVOLUTION_APPS\\simple_wallet\\contracts\\Investments.sol",
  "compiler": {
    "name": "solc",
    "version": "0.8.3+commit.8d00100c.Emscripten.clang"
  },
  "schemaVersion": "3.4.4",
  "updatedAt": "2022-01-26T11:02:16.867Z",
  "networkType": "ethereum",
  "devdoc": {
    "kind": "dev",
    "methods": {},
    "version": 1
  },
  "userdoc": {
    "kind": "user",
    "methods": {},
    "version": 1
  }
}