{
  "contractName": "Investment",
  "abi": [
    {
      "inputs": [],
      "stateMutability": "nonpayable",
      "type": "constructor"
    },
    {
      "inputs": [],
      "name": "getBalanceAmount",
      "outputs": [
        {
          "internalType": "uint256",
          "name": "",
          "type": "uint256"
        }
      ],
      "stateMutability": "view",
      "type": "function",
      "constant": true
    },
    {
      "inputs": [],
      "name": "getDepositAmount",
      "outputs": [
        {
          "internalType": "uint256",
          "name": "",
          "type": "uint256"
        }
      ],
      "stateMutability": "view",
      "type": "function",
      "constant": true
    },
    {
      "inputs": [
        {
          "internalType": "uint256",
          "name": "amount",
          "type": "uint256"
        }
      ],
      "name": "addDepositAmount",
      "outputs": [],
      "stateMutability": "nonpayable",
      "type": "function"
    },
    {
      "inputs": [],
      "name": "withdrawBalance",
      "outputs": [],
      "stateMutability": "nonpayable",
      "type": "function"
    }
  ],
  "bytecode": "0x608060405234801561001057600080fd5b50600080819055506000600181905550600c600281905550600380819055506102588061003e6000396000f3fe608060405234801561001057600080fd5b506004361061004c5760003560e01c806358d3e10f146100515780635fd8c7101461006f5780637d96f69314610079578063a59c124514610097575b600080fd5b6100596100b3565b6040516100669190610161565b60405180910390f35b6100776100bc565b005b6100816100cd565b60405161008e9190610161565b60405180910390f35b6100b160048036038101906100ac9190610129565b6100d7565b005b60008054905090565b600080819055506000600181905550565b6000600154905090565b806001546100e5919061017c565b6001819055506002546001541061011157600354600080828254610109919061017c565b925050819055505b50565b6000813590506101238161020b565b92915050565b60006020828403121561013b57600080fd5b600061014984828501610114565b91505092915050565b61015b816101d2565b82525050565b60006020820190506101766000830184610152565b92915050565b6000610187826101d2565b9150610192836101d2565b9250827fffffffffffffffffffffffffffffffffffffffffffffffffffffffffffffffff038211156101c7576101c66101dc565b5b828201905092915050565b6000819050919050565b7f4e487b7100000000000000000000000000000000000000000000000000000000600052601160045260246000fd5b610214816101d2565b811461021f57600080fd5b5056fea26469706673582212209465c8af32dcd14067bc509ac377f17ce48a62ad77178d384711c62d4920852464736f6c63430008030033",
  "immutableReferences": {},
  "source": "// SPDX-License-Identifier: GPL-3.0\r\npragma solidity >=0.6.2 <0.9.0;\r\n\r\ncontract Investment{\r\n    uint256 balanceAmount;\r\n    uint256 depositAmount;\r\n    uint256 thresholdAmount;\r\n    uint256 returnOnInvestment;\r\n    \r\n    constructor(){\r\n    balanceAmount = 0;\r\n    depositAmount = 0;\r\n    thresholdAmount = 12;\r\n    returnOnInvestment = 3;\r\n    }\r\n    \r\n    function getBalanceAmount()  public view returns (uint256){\r\n        return balanceAmount;\r\n    }\r\n    \r\n    \r\n    function getDepositAmount() public view returns (uint256){\r\n        return depositAmount;\r\n    }\r\n    \r\n    function addDepositAmount(uint256 amount) public{\r\n        depositAmount = depositAmount + amount;\r\n        \r\n        if(depositAmount >= thresholdAmount){\r\n            balanceAmount += returnOnInvestment;\r\n        }\r\n    }\r\n    \r\n    function withdrawBalance() public {\r\n        balanceAmount = 0;\r\n        depositAmount = 0;\r\n    }\r\n    \r\n}",
  "sourcePath": "C:/Users/rbsou/Documents/FLUTTER/BLOCK_REVOLUTION_APPS/basic_wallet/contracts/Investments.sol",
  "compiler": {
    "name": "solc",
    "version": "0.8.3+commit.8d00100c.Emscripten.clang"
  },
  "schemaVersion": "3.4.1",
  "updatedAt": "2021-10-10T15:25:09.977Z",
  "networkType": "ethereum",
  "devdoc": {
    "kind": "dev",
    "methods": {},
    "version": 1
  },
  "userdoc": {
    "kind": "user",
    "methods": {},
    "version": 1
  }
}